:020000040000FA
:100000000A128A114229FF3FFF3FFF3FFF3FFF3F98
:10001000FF3FFF3FFF3FFF3FFF3FFF3FFF3FFF3FF0
:10002000FF3FFF3FFF3FFF3FFF3FFF3FFF3FFF3FE0
:10003000FF3FFF3FFF3FFF3FFF3FFF3FFF3FFF3FD0
:10004000FF3FFF3FFF3FFF3FFF3FFF3FFF3FFF3FC0
:10005000FF3FFF3FFF3FFF3FFF3FFF3FFF3FFF3FB0
:10006000FF3FFF3FFF3FFF3FFF3FFF3FFF3FFF3FA0
:10007000FF3FFF3FFF3FFF3FFF3FFF3FFF3FFF3F90
:10008000FF3FFF3FFF3FFF3FFF3FFF3FFF3FFF3F80
:10009000FF3FFF3FFF3FFF3FFF3FFF3FFF3FFF3F70
:1000A000FF3FFF3FFF3FFF3FFF3FFF3FFF3FFF3F60
:1000B000FF3FFF3FFF3FFF3FFF3FFF3FFF3FFF3F50
:1000C000FF3FFF3FFF3FFF3FFF3FFF3FFF3FFF3F40
:1000D000FF3FFF3FFF3FFF3FFF3FFF3FFF3FFF3F30
:1000E000FF3FFF3FFF3FFF3FFF3FFF3FFF3FFF3F20
:1000F000FF3FFF3FFF3FFF3FFF3FFF3FFF3FFF3F10
:10010000FF3FFF3FFF3FFF3FFF3FFF3FFF3FFF3FFF
:10011000FF3FFF3FFF3FFF3FFF3FFF3FFF3FFF3FEF
:10012000FF3FFF3FFF3FFF3FFF3FFF3FFF3FFF3FDF
:10013000FF3FFF3FFF3FFF3FFF3FFF3FFF3FFF3FCF
:10014000FF3FFF3FFF3FFF3FFF3FFF3FFF3FFF3FBF
:10015000FF3FFF3FFF3FFF3FFF3FFF3FFF3FFF3FAF
:10016000FF3FFF3FFF3FFF3FFF3FFF3FFF3FFF3F9F
:10017000FF3FFF3FFF3FFF3FFF3FFF3FFF3FFF3F8F
:10018000FF3FFF3FFF3FFF3FFF3FFF3FFF3FFF3F7F
:10019000FF3FFF3FFF3FFF3FFF3FFF3FFF3FFF3F6F
:1001A000FF3FFF3FFF3FFF3FFF3FFF3FFF3FFF3F5F
:1001B000FF3FFF3FFF3FFF3FFF3FFF3FFF3FFF3F4F
:1001C000FF3FFF3FFF3FFF3FFF3FFF3FFF3FFF3F3F
:1001D000FF3FFF3FFF3FFF3FFF3FFF3FFF3FFF3F2F
:1001E000FF3FFF3FFF3FFF3FFF3FFF3FFF3FFF3F1F
:1001F000FF3FFF3FFF3FFF3FFF3FFF3F7E088A007B
:100200007F088200FE200A128A118000840A0408F6
:100210007D0603190034FF0A0319FE0A022945343A
:100220004E345434453452342034313420344E3436
:100230004F343D34203400344F345034453452343C
:10024000413454344F34523420343D34203400345B
:1002500045344E345434453452342034323420340E
:100260004E344F343D34203400342A342A342A3476
:1002700052344534533455344C3454342A342A34AB
:100280002A3400348313BA30FD000130FE002830D8
:10029000FF00A03084000A128A1102210A128A117A
:1002A0006A30FD000130FE000F30FF005130840045
:1002B0000A128A11022183010A128A11842AF20089
:1002C000303A03197E29013A03198129033A0319A7
:1002D0008529013A03198929073A03198D29013A19
:1002E00003199129033A03199529013A0319992908
:1002F0000F3A03199D29013A0319A129F001F101CF
:100300000800F001F00AF10108000230F000F101EC
:1003100008000330F000F10108000430F000F101A2
:1003200008000530F000F10108000630F000F1018E
:1003300008000730F000F10108000830F000F1017A
:1003400008000930F000F10108002308A600240885
:10035000A7002508A8000310270D280DAD00AD0843
:10036000031DB629A001A101A20108002008A600D2
:100370002108A7002208A8000310270D280DAE00B1
:10038000AE08031DC729A001A101A2010800AA010E
:10039000AB01AC0189302E07A600AD022508AE00E6
:1003A0002208AE068030AE05A417A501A117A20150
:1003B0001830A9000310AA0DAB0DAC0D22082502C0
:1003C000031DE82921082402031DE829200823022F
:1003D000031CF6292008A3022108031C210FA402F4
:1003E0002208031C220AA5022A140310A30DA40D3F
:1003F000A50DA90BDA292A08F0002B08F1002C081A
:10040000F2002D08F3002E08F4000A128A11B52715
:100410007008A0007108A1007208A20008000B304B
:10042000F6001C30F5006330F400F40B152AF50BD0
:10043000152AF60B152A6400303061220A128A113F
:100440000B30F6001C30F5006330F400F40B262A64
:10045000F50B262AF60B262A6400303061220A1298
:100460008A110B30F6001C30F5006330F400F40BF9
:10047000372AF50B372AF60B372A64003030612211
:100480000A128A110B30F6001C30F5006330F400BC
:10049000F40B482AF50B482AF60B482A640038303A
:1004A00061220A128A110F3061220A128A11013068
:1004B00061220A128A11063061220A128A118030E2
:1004C000612AF30073088312031386000813881748
:1004D0000330F2008830F1005630F000F00B6E2A45
:1004E000F10B6E2AF20B6E2A83120313881303306A
:1004F000F2008830F1005630F000F00B7D2AF10B4D
:100500007D2AF20B7D2A0800F030831687008601D1
:10051000081388130B308312C7001C30C6006330E9
:10052000C500C50B912AC60B912AC70B912A6400FE
:1005300083120313CF01D0010A128A110F220A126B
:100540008A11F030831203138700831203134F08BC
:10055000513E8400831380080319BD2A4F08513E81
:10056000840000080A128A111B260A128A118312BB
:100570000313CF0A0319D00AA52A0A128A11B32439
:100580000A128A1183120313C8000A128A115F210A
:100590000A128A117108CC007008CB0001300A12CF
:1005A0008A1161220A128A1183120313CF01D0012A
:1005B0004F085E3E8400831380080319EE2A4F081B
:1005C0005E3E840000080A128A111B260A128A1154
:1005D00083120313CF0A0319D00AD82A0A128A11E8
:1005E000B3240A128A1183120313C90001300A12BC
:1005F0008A1161220A128A1183120313CF01D001DA
:100600004F08A03E8400831380080319162B4F085F
:10061000A03E840000080A128A111B260A128A11C1
:1006200083120313CF0A0319D00A002B0A128A116E
:10063000B3240A128A1183120313CA000A128A1100
:100640005F210A128A117108CE007008CD000130B6
:100650000A128A1161220A128A1182300A128A1140
:1006600061220A128A1183120313CF01D0014F08AD
:10067000AD3E84008313800803194D2B4F08AD3E17
:10068000840000080A128A111B260A128A1183129A
:100690000313CF0A0319D00A372BCF01D001C03082
:1006A0000A128A1161220A128A118312031348085E
:1006B0000A128A111B260A128A118312031349088F
:1006C0000A128A111B260A128A11831203134A087E
:1006D0000A128A111B260A128A1120300A128A1164
:1006E0001B260A128A113D300A128A111B260A1291
:1006F0008A11012C4E08F9004D08F8004B08F80744
:100700000318F90A4C08F9070A128A1111240A126F
:100710008A117808B8007908B9007A08BA000A1274
:100720008A112C240A128A11A52A4C08F9004B08B8
:10073000F8004D08F8024E08031CF903F9020A12EA
:100740008A1111240A128A117808B8007908B900B0
:100750007A08BA000A128A112C240A128A11A52AD0
:100760004C08F1004B08F0004E08F3004D08F20071
:100770000A128A11AB260A128A117108F900700850
:10078000F8000A128A1111240A128A117808B80096
:100790007908B9007A08BA000A128A112C240A12C0
:1007A0008A11A52A4E08F9004D08F8000A128A118C
:1007B00011240A128A117808A0007908A1007A0889
:1007C000A2004C08F9004B08F8000A128A11112403
:1007D0000A128A117808A3007908A4007A08A500F3
:1007E0000A128A11A5210A128A112008B8002108CC
:1007F000B9002208BA000A128A112C240A128A119E
:10080000A52A8312031349082A3A0319B02B013A87
:1008100003197A2B063A0319952B023A0319D22BA6
:10082000A52AFB01F91F1B2CF809F909F80A03197D
:10083000F90AFB01FB0A7808F0007908F100F201DF
:100840008E30F3007B08F400B5277008F8007108BB
:10085000F9007208FA0008003808AC003908AD0049
:100860003A08AE00A9012030AA004130AB0046276B
:100870000A128A112908F8002A08F9002B08FA0040
:100880003C260A128A117908BF007808BE00380891
:10089000F8003908F9003A08FA003C260A128A11D1
:1008A0007908C4007808C300C41F682CFF30F0002A
:1008B000F1004408F3004308F200AB260A128A1143
:1008C0007108C4007008C3002D301B260A128A115B
:1008D0000A30F000F101FD274408F3004308F2005C
:1008E000C4260A128A117008C200420803197D2C1E
:1008F0004208303E1B260A128A11F630F000FD270E
:1009000042089D260A128A11BB0043083B07C0001B
:10091000303E1B260A128A112E301B260A128A111B
:100920000A30F000F101FD273F08F3003E08F20015
:1009300009270A128A117008C100303E1B260A12CC
:100940008A114C30FD27BD00CE30BC008130BB0089
:10095000BB0BA82CBC0BA82CBD0BA82C6400013031
:100960000A128A11612A7330F8007808613A031973
:10097000192EFD270714871007118711071ED52C84
:1009800037301B260A128A110D30F600A330F5000D
:10099000BD30F400F40BCA2CF50BCA2CF60BCA2C94
:1009A00064003730F7006130F800FD27871EED2C1A
:1009B00038301B260A128A110D30F600A330F500DC
:1009C000BD30F400F40BE22CF50BE22CF60BE22C1C
:1009D00064003830F7006130F800FD27071F052D4F
:1009E00039301B260A128A110D30F600A330F500AB
:1009F000BD30F400F40BFA2CF50BFA2CF60BFA2CA4
:100A000064003930F7006130F800FD27871F1D2D85
:100A10002F301B260A128A110D30F600A330F50084
:100A2000BD30F400F40B122DF50B122DF60B122D28
:100A300064002F30F7006130F800FD27071087149D
:100A400007118711071E392D34301B260A128A110F
:100A50000D30F600A330F500BD30F400F40B2E2D60
:100A6000F50B2E2DF60B2E2D64003430F70061307F
:100A7000F800FD27871E512D35301B260A128A11DA
:100A80000D30F600A330F500BD30F400F40B462D18
:100A9000F50B462DF60B462D64003530F70061301E
:100AA000F800FD27071F692D36301B260A128A1110
:100AB0000D30F600A330F500BD30F400F40B5E2DD0
:100AC000F50B5E2DF60B5E2D64003630F7006130BD
:100AD000F800FD27871F812D2A301B260A128A1154
:100AE0000D30F600A330F500BD30F400F40B762D88
:100AF000F50B762DF60B762D64002A30F700613069
:100B0000F800FD270710871007158711071E9D2D78
:100B100031301B260A128A110D30F600A330F50081
:100B2000BD30F400F40B922DF50B922DF60B922DA7
:100B300064003130F7006130F800FD27871EB52DC5
:100B400032301B260A128A110D30F600A330F50050
:100B5000BD30F400F40BAA2DF50BAA2DF60BAA2D2F
:100B600064003230F7006130F800FD27071FCD2DFB
:100B700033301B260A128A110D30F600A330F5001F
:100B8000BD30F400F40BC22DF50BC22DF60BC22DB7
:100B900064003330F7006130F800FD27871FE52D32
:100BA0002D301B260A128A110D30F600A330F500F5
:100BB000BD30F400F40BDA2DF50BDA2DF60BDA2D3F
:100BC00064002D30F7006130F800FD270710871012
:100BD00007118715871E012E30301B260A128A1135
:100BE0000D30F600A330F500BD30F400F40BF62D07
:100BF000F50BF62DF60BF62D64003030F700613062
:100C0000F800FD27871FB52C2B301B260A128A11EE
:100C10000D30F600A330F500BD30F400F40B0E2EBD
:100C2000F50B0E2EF60B0E2E64002B30F700613004
:100C3000B42C77080800F3007308FD278600081716
:100C400088170330F2008830F1005630F000F00BC6
:100C5000272EF10B272EF20B272EFD2788130330AA
:100C6000F2008830F1005630F000F00B352EF10B19
:100C7000352EF20B352E08007808A0007908A10067
:100C80007A08A2000310210D220DA800A808031D58
:100C90004E2EF801F901FA01FB0108007808A000C6
:100CA0007908A1007A08A20017300310A20CA10C49
:100CB000A00CFF3E031D552E2008A300F917FA01D2
:100CC0007808A4007908A5007A08A600A7018E304C
:100CD000A802A81F782E2808803A8F3E031C492EB0
:100CE0000310A70CA60CA50CA40CA80F702E862E22
:100CF000183028020318492EA8080319862E03105D
:100D0000A40DA50DA60DA70DA8037C2E230803197D
:100D1000942EA409A509A609A709A40A0319A50ADE
:100D20000319A60A0319A70A2708FB002608FA00D8
:100D30002508F9002408F8000800F200F101700805
:100D40007218F1070310F00D0310F20CF208031DE6
:100D50009F2E71080800F401F501701CB52E720871
:100D6000F4070318F50A7308F5070310F20DF30DE5
:100D70000310F10CF00C71087004031DAD2E750802
:100D8000F1007408F0000800F501F11FCE2EF00903
:100D9000F109F00A0319F10AF501F50AF31FD72E3C
:100DA000F209F309F20A0319F30A0130F506F60114
:100DB000F701710870040319FC2EF401F40AF11B09
:100DC000E52E0310F00DF10DDE2E0310F60DF70DDC
:100DD00071087302031DEE2E70087202031CF82EB8
:100DE0007008F2027108031CF303F3027614031077
:100DF000F10CF00CF40BE52E75080319042FF6091D
:100E0000F709F60A0319F70A7708F1007608F000E7
:100E10000800F501F31F132FF209F309F20A031971
:100E2000F30AF501F50AF11F1A2FF009F109F00A8A
:100E30000319F10A710870040319392FF401F40A37
:100E4000F11B262F0310F00DF10D1F2F71087302F7
:100E5000031D2C2F70087202031C352F7008F2023C
:100E60007108031CF303F3020310F10CF00CF40BF4
:100E7000262F75080319412FF209F309F20A031905
:100E8000F30A7308F1007208F00008002908AF00A7
:100E90002A08B0002B08B1000310300D310DB2004C
:100EA000B208031D572FA901AA01AB0108002C08A5
:100EB000AF002D08B0002E08B1000310300D310D29
:100EC000B700B708031D682FA901AA01AB010800EC
:100ED00037087B3EB2072B08B7002E08B7068030D4
:100EE000B705AA17AD17AE01B301B401B5010730BC
:100EF000B600291C832F2C08F3270A128A11031825
:100F00002E0A031DB5070310AB0CAA0CA90C031085
:100F1000AC0DAD0DAE0DB60B792F0930B600291C06
:100F2000992F2C08F3270A128A1103182E0A031D81
:100F3000B5070310AB0CAA0CA90C0310B50CB40C2C
:100F4000B30CB60B8F2F3308F0003408F1003508CE
:100F5000F2003208F3003708F400B5277008A90042
:100F60007108AA007208AB00080073080319BD2FAE
:100F7000720871047004031DC62FF001F101F20123
:100F80000800F30A0310F20CF10CF00CFE307205AD
:100F90000319D52FC12FF30AF00A0319F10A031917
:100FA000F20A0310F20CF10CF00CFF307205031979
:100FB000DF2FCB2FF3030310F00DF10DF20DF11F16
:100FC000DA2F731CF1130310F30C7308F700F6010A
:100FD000F5017508F0047608F1047708F204740846
:100FE000031DF2170800B3072D08031103182D0A7B
:100FF000031DB4072E080311080083120313080011
:10100000FF3FFF3FFF3FFF3FFF3FFF3FFF3FFF3FF0
:10101000FF3FFF3FFF3FFF3FFF3FFF3FFF3FFF3FE0
:10102000FF3FFF3FFF3FFF3FFF3FFF3FFF3FFF3FD0
:10103000FF3FFF3FFF3FFF3FFF3FFF3FFF3FFF3FC0
:02400E00F23F7F
:08400000FF3FFF3FFF3FFF3FC0
:00000001FF
