:020000040000FA
:060000000A128A11E12F33
:10000E002A342A342A3452344534533455344C3439
:10001E0054342A342A342A34003445344E34543479
:10002E00453452342034323420344E344F343D343F
:10003E002034003445344E34543445345234203454
:10004E00313420344E344F343D34203400340310D8
:10005E0083120313370D380DB9003908BF003F085E
:10006E00031D3A283B2844280030B8000030B70062
:10007E000030B6000030B500A9283508B9003608A2
:10008E00BA003708BB003808BC001F300310BC0C88
:10009E00BB0CBA0CB90CFF3E031D4D283908BD0030
:1000AE003D08BE00B717FF30B505FF30B605FF306F
:1000BE00B7050030B8059630BF02BF1F6728682805
:1000CE0082283F08803A973E03186E286F287028C2
:1000DE003B2801300310B80CB70CB60CB50CFF3E24
:1000EE00031D71280130B9003908BF07031D802890
:1000FE0081287028992820303F02031C87288828E1
:10010E0094283B280130B9000310B50DB60DB70D7C
:10011E00B80DB90B8B280130BF023F08031D98287C
:10012E00992889283E0803199D289E28A928B509D3
:10013E00B609B709B809B50A0319B60A0319B70AF9
:10014E000319B80A08007330F4007408F8008D2AF9
:10015E00831203130714871007118711071EB8287F
:10016E00B928D42837300A128A15DC220A128A11CD
:10017E000D30F600AF30F500B630F400F40BC528A4
:10018E00F50BC528F60BC52800003730F4007408AF
:10019E00F7006130F4007408F80083120313871E11
:1001AE00D928DA28F52838300A128A15DC220A12E4
:1001BE008A110D30F600AF30F500B630F400F40BB6
:1001CE00E628F50BE628F60BE62800003830F4009A
:1001DE007408F7006130F4007408F80083120313FA
:1001EE00071FFA28FB28162939300A128A15DC2235
:1001FE000A128A110D30F600AF30F500B630F40059
:10020E00F40B0729F50B0729F60B072900003930E7
:10021E00F4007408F7006130F4007408F8008312DB
:10022E000313871F1B291C2937292F300A128A1501
:10023E00DC220A128A110D30F600AF30F500B6300E
:10024E00F400F40B2829F50B2829F60B28290000B9
:10025E002F30F4007408F7006130F4007408F800D1
:10026E00831203130710871407118711071E4029E5
:10027E0041295C2934300A128A15DC220A128A11AD
:10028E000D30F600AF30F500B630F400F40B4D290A
:10029E00F50B4D29F60B4D2900003430F40074088F
:1002AE00F7006130F4007408F80083120313871E00
:1002BE00612962297D2935300A128A15DC220A123B
:1002CE008A110D30F600AF30F500B630F400F40BA5
:1002DE006E29F50B6E29F60B6E2900003530F400F1
:1002EE007408F7006130F4007408F80083120313E9
:1002FE00071F822983299E2936300A128A15DC228D
:10030E000A128A110D30F600AF30F500B630F40047
:10031E00F40B8F29F50B8F29F60B8F290000363041
:10032E00F4007408F7006130F4007408F8008312CA
:10033E000313871FA329A429BF292A300A128A155D
:10034E00DC220A128A110D30F600AF30F500B630FD
:10035E00F400F40BB029F50BB029F60BB029000010
:10036E002A30F4007408F7006130F4007408F800C5
:10037E00831203130710871007158711071EC8294C
:10038E00C929E42931300A128A15DC220A128A118F
:10039E000D30F600AF30F500B630F400F40BD52971
:1003AE00F50BD529F60BD52900003130F400740871
:1003BE00F7006130F4007408F80083120313871EEF
:1003CE00E929EA29052A32300A128A15DC220A1294
:1003DE008A110D30F600AF30F500B630F400F40B94
:1003EE00F629F50BF629F60BF62900003230F4004B
:1003FE007408F7006130F4007408F80083120313D8
:10040E00071F0A2A0B2A262A33300A128A15DC22E3
:10041E000A128A110D30F600AF30F500B630F40036
:10042E00F40B172AF50B172AF60B172A0000333098
:10043E00F4007408F7006130F4007408F8008312B9
:10044E000313871F2B2A2C2A472A2D300A128A15AE
:10045E00DC220A128A110D30F600AF30F500B630EC
:10046E00F400F40B382AF50B382AF60B382A000064
:10047E002D30F4007408F7006130F4007408F800B1
:10048E00831203130710871007118715871E502A32
:10049E00512A6C2A30300A128A15DC220A128A116D
:1004AE000D30F600AF30F500B630F400F40B5D2AD7
:1004BE00F50B5D2AF60B5D2A00003030F40074084F
:1004CE00F7006130F4007408F80083120313871FDD
:1004DE00712A722A8D2A2B300A128A15DC220A12F0
:1004EE008A110D30F600AF30F500B630F400F40B83
:1004FE007E2AF50B7E2AF60B7E2A00002B30F400A6
:10050E007408F7006130F4007408F8006130780662
:10051E00031D922A932AAF2877080800F03083161D
:10052E00031387008601081388130B3083120313FD
:10053E00D0002630CF005D30CE00CE0BA42ACF0BDC
:10054E00A42AD00BA42A83120313D801D9010A12AC
:10055E008A15DC230A128A11F030831203138700E6
:10056E00C92A5808BA3E840000080A128A15DC22ED
:10057E000A128A11013083120313D8070318D90AFD
:10058E000030D907831203135808BA3E8400831330
:10059E000008031DD32AD42AB82A0A128A11AA20C7
:1005AE000A128A1183120313CE004E08D10051088D
:1005BE000A128A1581230A128A11710883120313F3
:1005CE00D5007008D40001300A128A15B7220A121B
:1005DE008A1183120313D801D901062B58085A3EEB
:1005EE00840000080A128A15DC220A128A110130D0
:1005FE0083120313D8070318D90A0030D9075808F5
:10060E005A3E840083130008031D0E2B0F2BF52A70
:10061E000A128A11AA200A128A1183120313CE001B
:10062E004E08D20001300A128A15B7220A128A1118
:10063E0083120313D801D901352B5808AD3E84001F
:10064E0000080A128A15DC220A128A11013083125E
:10065E000313D8070318D90A0030D9075808AD3E3E
:10066E00840083130008031D3D2B3E2B242B0A12FE
:10067E008A11AA200A128A1183120313CE004E0881
:10068E00D30053080A128A1581230A128A1171089F
:10069E0083120313D7007008D60001300A128A1590
:1006AE00B7220A128A1182300A128A15B7220A124A
:1006BE008A1183120313D801D901762B5808A03E54
:1006CE00840000080A128A15DC220A128A110130EF
:1006DE0083120313D8070318D90A0030D907580814
:1006EE00A03E840083130008031D7E2B7F2B652BF9
:1006FE00D801D901C0300A128A15B7220A128A11FE
:10070E008312031351080A128A15DC220A128A1167
:10071E008312031352080A128A15DC220A128A1156
:10072E008312031353080A128A15DC220A128A1145
:10073E0020300A128A15DC220A128A113D300A1262
:10074E008A15DC220A128A11652C54085607F60007
:10075E0055080318550A5707F700F801F71BF80359
:10076E007808F90001300A128A15A8240A128A1193
:10077E00790883120313C3007808C2007708C100FA
:10078E007608C0000A128A1564250A128A11C92A2F
:10079E0056085402F6005708031C570A5502F70074
:1007AE00F801F71BF8037808F90001300A128A15D0
:1007BE00A8240A128A11790883120313C300780839
:1007CE00C2007708C1007608C0000A128A15642597
:1007DE000A128A11C92A5708F3005608F200550862
:1007EE00F1005408F0000A128A1592220A128A1198
:1007FE007008F6007108F7000030F71BFF30F800A4
:10080E00F90001300A128A15A8240A128A117908F1
:10081E0083120313C3007808C2007708C10076085C
:10082E00C0000A128A1564250A128A11C92A5608AE
:10083E00F6005708F7000030F71BFF30F800F900FC
:10084E0001300A128A15A8240A128A117908831215
:10085E000313A9007808A8007708A7007608A60059
:10086E005408F6005508F7000030F71BFF30F8006B
:10087E00F90001300A128A15A8240A128A11790881
:10088E0083120313AD007808AC007708AB0076082E
:10089E00AA000A128A1523260A128A11831203133A
:1008AE002908C3002808C2002708C1002608C00076
:1008BE000A128A1564250A128A11C92A8312031391
:1008CE005208CE00CF014F08003A03196F2CC92AE7
:1008DE004E082A3A0319F22B013A0319AC2B063AA9
:1008EE000319CF2B023A03191E2CC92A0A128A1198
:1008FE0000288312031323088039F9007908A80011
:10090E002308F9007907FA007A08AE00A21F902C8E
:10091E00912C922C2E142E080319962C972CA62C63
:10092E002E0A031D9B2C9C2CA42C0030A3000030FF
:10093E00A2000030A1000030A000A217AE2C0030A3
:10094E00A3000030A2000030A1000030A000270854
:10095E008039F9007908A8062708F9007907FA0006
:10096E007A08AD00A61FBC2CBD2CBE2C2D142D0854
:10097E000319C22CC32CD22C2D0A031DC72CC82C34
:10098E00D02C0030A7000030A6000030A5000030AB
:10099E00A400A617DA2C0030A7000030A600003005
:1009AE00A5000030A4002D080319DE2CDF2CE42C4A
:1009BE002E08031DE32CE42CED2C0030A300003098
:1009CE00A2000030A1000030A000E02F2008F900A6
:1009DE007908F00026080A128A1501230A128A11D4
:1009EE00710883120313B4007008B3003308F900C2
:1009FE00FA01FB01FC017C08AC007B08AB007A0815
:100A0E00AA007908A9003408F900FA01FB01FC01DB
:100A1E007C08B2007B08B1007A08B0007908AF00FC
:100A2E002108F9007908F00025080A128A15012319
:100A3E000A128A11710883120313B4007008B300EE
:100A4E003308F900FA01FB01FC017908A9077A08BD
:100A5E0003110318013E0319352DAA077B08031154
:100A6E000318013E03193C2DAB077C080311031834
:100A7E00013E0319432DAC073408F900FA01FB01BE
:100A8E00FC017908AF077A0803110318013E031918
:100A9E00512DB0077B0803110318013E0319582D81
:100AAE00B1077C0803110318013E03195F2DB2072D
:100ABE002208F9007908F00024080A128A15012389
:100ACE000A128A11710883120313B4007008B3005E
:100ADE003308F900FA01FB01FC017908A9077A082D
:100AEE0003110318013E03197D2DAA077B0803117C
:100AFE000318013E0319842DAB077C08031103185C
:100B0E00013E03198B2DAC073408F900FA01FB01E5
:100B1E00FC017908AF077A0803110318013E031987
:100B2E00992DB0077B0803110318013E0319A02D60
:100B3E00B1077C0803110318013E0319A72DB20754
:100B4E000830F9000310A90DAA0DAB0DAC0DF90B71
:100B5E00A92D2108F9007908F00024080A128A1537
:100B6E0001230A128A11710883120313B40070084C
:100B7E00B3003308F9003408FA00FB01FC017908D0
:100B8E00A9077A0803110318013E0319CF2DAA07EE
:100B9E007B0803110318013E0319D62DAB077C0801
:100BAE0003110318013E0319DD2DAC072008F900CF
:100BBE007908F00025080A128A1501230A128A11F3
:100BCE00710883120313B4007008B3003308F900E0
:100BDE003408FA00FB01FC017908A9077A08031111
:100BEE000318013E0319FC2DAA077B0803110318F5
:100BFE00013E0319032EAB077C0803110318013EB7
:100C0E0003190A2EAC070830F9000310A90DAA0D1E
:100C1E00AB0DAC0DF90B0C2E2008F9007908F00085
:100C2E0024080A128A1501230A128A1171088312E6
:100C3E000313B4007008B3003308F9003408FA0047
:100C4E00FB01FC017908A9077A0803110318013E7C
:100C5E000319322EAA077B0803110318013E03194C
:100C6E00392EAB077C0803110318013E0319402EE1
:100C7E00AC072108F9007908F00026080A128A1537
:100C8E0001230A128A11710883120313B40070082B
:100C9E00B3003308F9003408FA00FB01FC017908AF
:100CAE00AF077A0803110318013E03195F2EB00730
:100CBE007B0803110318013E0319662EB1077C0849
:100CCE0003110318013E03196D2EB2072208F90015
:100CDE007908F00025080A128A1501230A128A11D2
:100CEE00710883120313B4007008B3003308F900BF
:100CFE003408FA00FB01FC017908AF077A080311EA
:100D0E000318013E03198C2EB0077B08031103183C
:100D1E00013E0319932EB1077C0803110318013EFF
:100D2E0003199A2EB2072208F9007908F000260856
:100D3E000A128A1501230A128A11710883120313EB
:100D4E00B4007008B3003308F9003408FA00FB0150
:100D5E00FC0108300310F90DFA0DFB0DFC0DFF3EE2
:100D6E00031DB12E7908AF077A0803110318013E4F
:100D7E000319C22EB0077B0803110318013E031995
:100D8E00C92EB1077C0803110318013E0319D02E9A
:100D9E00B2072908F9002A08FA002B08FB002C08D4
:100DAE00FC0018300310FC0CFB0CFA0CF90CFF3E87
:100DBE00031DD92E7908AF077A0803110318013ED7
:100DCE000319EA2EB0077B0803110318013E03191D
:100DDE00F12EB1077C0803110318013E0319F82EFA
:100DEE00B2070830F9000310A90DAA0DAB0DAC0D1A
:100DFE00F90BFA2E2E082D07F900FA01FA0D7908D3
:100E0E00823EB3007A080318013EFF3EB4002C2F39
:100E1E000130F9000310AF0DB00DB10DB20DF90B8D
:100E2E00112FAC1F1B2F1C2F1D2F2F140130F9005B
:100E3E000310A90DAA0DAB0DAC0DF90B1F2FFF3032
:100E4E00B3070318B40AFF30B407B11F2F2F302F8A
:100E5E000F2FAD01AC1F342F352F512FFF30290529
:100E6E00F900FF302A05FA00FF302B05FB007F301A
:100E7E002C05FC007C087B047A0479040319482FA6
:100E8E00492F4C2FAD01AD0A512F2F1C4F2F502F34
:100E9E00512F492F2D080319552F562F872F01300B
:100EAE00AF07003003180130B007003003180130CF
:100EBE00B107003003180130B207321C672F682FBC
:100ECE00872F2F08F9003008FA003108FB0032088E
:100EDE00FC000130FD007C0DFC0CFB0CFA0CF90C37
:100EEE00FD0B722F7C08B2007B08B1007A08B000AF
:100EFE007908AF000130B3070318B40A0030B40705
:100F0E003408803AFF0080307F02031D902FFF309F
:100F1E003302031C932F942F9F2F7F3083120313C2
:100F2E00B2008030B1000030B0000030AF00D42FDE
:100F3E00831203133408803AFF0080307F02031DB2
:100F4E00AA2F013033020318AD2FAE2FBA2F003067
:100F5E0083120313B2000030B1000030B000003035
:100F6E00AF00A801D42F831203133308F9007908B8
:100F7E00AE00FF30AF05FF30B0057F30B105003059
:100F8E00B2052E1CCB2FCC2FCD2FB1172E08F9006A
:100F9E000310790CFA007A08B2002808F9007908D3
:100FAE00B2043208A3003108A2003008A1002F08B5
:100FBE00A00008008313C730FD000030FE0007308C
:100FCE00FF00A03084000A128A156E220A128A11BE
:100FDE006630FD000A30FE005E30FF005A3084009D
:100FEE000A128A156E220A128A1183010A128A11B6
:020FFE00952A32
:1014BC004F34503445345234413454344F34523414
:1014CC0020343D34203400347E088A007F088200AA
:1014DC000A128A156A220A128A158000840A0408E4
:1014EC007D0603190034FF0A0319FE0A6E2AF30065
:1014FC00F201731C822A832A872A7008F100710872
:10150C00F2070310F00D0310F30C7308031D8F2A60
:10151C00902A7F2A72080800F401F501701C972AA2
:10152C00982A9E2A7208F4070318F50A7308F5071F
:10153C0001300310F20DF30DFF3E031D9F2A013005
:10154C000310F10CF00CFF3E031DA62A7008710469
:10155C00031DB12AB22A942A7508F1007408F00010
:10156C000800F3007308831203138600081388170E
:10157C000330F2008A30F1005530F000F00BC42A31
:10158C00F10BC42AF20BC42ACB2A8312031388133F
:10159C000330F2008A30F1005530F000F00BD42A01
:1015AC00F10BD42AF20BD42ADB2A0800F3007308BF
:1015BC00831203138600081788170330F2008A3051
:1015CC00F1005530F000F00BE92AF10BE92AF20B8F
:1015DC00E92AF02A8312031388130330F2008A30AD
:1015EC00F1005530F000F00BF92AF10BF92AF20B4F
:1015FC00F92A002B0800F800F401F5017008F2003C
:10160C00F3017208F6007308F700781C0E2B0F2BF1
:10161C00152B7608F4070318F50A7708F50701303F
:10162C000310F60DF70DFF3E031D162B0310F80CDF
:10163C007808031D222B232B0B2B7508F100740843
:10164C00F0000800F601F31F2C2B2D2B342BF20984
:10165C00F309F20A0319F30AF601F60AF11F372B04
:10166C00382B3D2BF009F109F00A0319F10A700827
:10167C0071040319422B432B722BF501F50A512BE4
:10168C0001300310F00DF10DFF3E031D472B01300F
:10169C00F4007408F507F11F542B552B462B7108D9
:1016AC007302031D5B2B70087202031C5E2B5F2BF5
:1016BC00652B7008F2027108031CF303F30201306E
:1016CC000310F10CF00CFF3E031D662B0130F502EC
:1016DC00031D712B722B552B76080319762B772B48
:1016EC007C2BF209F309F20A0319F30A7308F100CF
:1016FC007208F0000800F400B32BF001F101DB2BB1
:10170C000130F0000030F100DB2B0230F000003033
:10171C00F100DB2B0330F0000030F100DB2B043048
:10172C00F0000030F100DB2B0530F0000030F10050
:10173C00DB2B0630F0000030F100DB2B0730F00023
:10174C000030F100DB2B0830F0000030F100DB2B17
:10175C000930F0000030F100DB2B7408F200F301CB
:10176C007308003A0319BB2B832B7208303A031908
:10177C00832B013A0319862B033A03198B2B013A5D
:10178C000319902B073A0319952B013A03199A2B3D
:10179C00033A03199F2B013A0319A42B0F3A03198F
:1017AC00A92B013A0319AE2B832B08000B30F60042
:1017BC002630F5005D30F400F40BE22BF50BE22B38
:1017CC00F60BE22BE92B30300A128A15B7220A12DB
:1017DC008A150B30F6002630F5005D30F400F40B62
:1017EC00F52BF50BF52BF60BF52BFC2B30300A12E9
:1017FC008A15B7220A128A150B30F6002630F5002E
:10180C005D30F400F40B082CF50B082CF60B082CAF
:10181C000F2C30300A128A15B7220A128A150B3097
:10182C00F6002630F5005D30F400F40B1B2CF50BA4
:10183C001B2CF60B1B2C222C38300A128A15B722C3
:10184C000A128A150F300A128A15B7220A128A1543
:10185C0001300A128A15B7220A128A1506300A12AA
:10186C008A15B7220A128A1580300A128A15B722F5
:10187C000A128A150800F601F11F452C462C4D2C36
:10188C00F009F109F00A0319F10AF601F60AF31F3F
:10189C00502C512C5A2CF209F309F20A0319F30AB1
:1018AC000130F4007408F606F701F80170087104B1
:1018BC000319612C622C992CF501F50A702C01305E
:1018CC000310F00DF10DFF3E031D662C0130F400EA
:1018DC007408F507F11F732C742C652C0130031060
:1018EC00F70DF80DFF3E031D752C71087302031DD7
:1018FC00812C70087202031C842C852C8C2C700893
:10190C00F2027108031CF303F30277140130031085
:10191C00F10CF00CFF3E031D8D2C0130F502031D64
:10192C00982C992C742C760803199D2C9E2CA32C86
:10193C00F709F809F70A0319F80A7808F10077088B
:10194C00F000080083120313A00020080319AF2C29
:10195C00B02CC42CF91FB32CB42CC42C7609A200C7
:10196C007709A3007809A4007909A500A20A031934
:10197C00A30A0319A40A0319A50ACC2C7908A500FB
:10198C007808A4007708A3007608A20079087804E8
:10199C0077047604031DD32CD42CDD2C0030F900F5
:1019AC000030F8000030F7000030F600632D963060
:1019BC00FA007A08A100EF2C0130FA007A08A1078E
:1019CC0001300310A50CA40CA30CA20CFF3E031DAC
:1019DC00E72CFE302505031DF42CF52CE22C112DE3
:1019EC000130FA007A08A1070130A2070030031871
:1019FC000130A307003003180130A407003003188E
:101A0C000130A50701300310A50CA40CA30CA20CEB
:101A1C00FF3E031D092DFF302505031D162D172D27
:101A2C00F62C232D0130A1020130FA000310A20D77
:101A3C00A30DA40DA50DFA0B1C2DA41B262D272DD3
:101A4C002D2D0230210203182C2D2D2D182D21188F
:101A5C00302D312D392DFF30A205FF30A3057F30FD
:101A6C00A405FF30A5050310A10C2108FA00FB0109
:101A7C00FC01FD0118300310FA0DFB0DFC0DFD0DE2
:101A8C00FF3E031D412D7A08A2047B08A3047C08A9
:101A9C00A4047D08A50420080319552D562D5B2D93
:101AAC00F91F592D5A2D5B2DA5172508F90024086F
:101ABC00F8002308F7002208F6000800831203132D
:101ACC004308A7004208A6004108A5004008A4004E
:101ADC004130A3002030A2000030A1000030A00053
:101AEC000A128A1180240A128A15831203132308FE
:101AFC00B8002208B7002108B6002008B5000A1269
:101B0C008A112E200A128A15831203133608C80074
:101B1C003508C7004308B8004208B7004108B600B2
:101B2C004008B5000A128A112E200A128A15831257
:101B3C0003133608CD003508CC00CD1FA62DA72DDC
:101B4C00B22DCC09CD09CC0A0319CD0A2D300A12BD
:101B5C008A15DC220A128A150A30F0000030F100D6
:101B6C00831203134D08F3004C08F2000A128A1575
:101B7C0041240A128A15700883120313C400440806
:101B8C00CB004B080319CB2DCC2DD32D4B08303E5D
:101B9C000A128A15DC220A128A15F63083120313F4
:101BAC00C4004408F0004B080A128A157D220A1260
:101BBC008A15831203134C07C5004508C900490850
:101BCC00303E0A128A15DC220A128A152E300A12AD
:101BDC008A15DC220A128A150A30F0000030F10056
:101BEC00831203134808F3004708F2000A128A15FF
:101BFC0028230A128A15700883120313C4004408A0
:101C0C00CA004A08303E0A128A15DC220A128A15CA
:101C1C004D3083120313C6001930C5004F30C40079
:101C2C00C40B162EC50B162EC60B162E01300A121F
:101C3C008A15B7220A128A150800831203132D087D
:101C4C008039AE002E08B7002D08AE002E07AF006D
:101C5C002F08BE00AC1F332E342E352E3E143E08FA
:101C6C000319392E3A2E4A2E3E0A031D3E2E3F2EC4
:101C7C00472E0030AD000030AC000030AB0000301F
:101C8C00AA00AC17AD01522E0030AD000030AC00F4
:101C9C000030AB000030AA0029088039AE002E08B5
:101CAC00B7062908AE002E07AF002F08BF00A81FEB
:101CBC00602E612E622E3F143F080319662E672E8C
:101CCC00772E3F0A031D6B2E6C2E742E0030A9004C
:101CDC000030A8000030A7000030A600A817A9010A
:101CEC007F2E0030A9000030A8000030A700003083
:101CFC00A6002908280427042604031D862E872EF7
:101D0C00A02E0030AD000030AC000030AB00003035
:101D1C00AA008030AC047F30AD043708AE002E082A
:101D2C00AD042D08A9002C08A8002B08A7002A0830
:101D3C00A600FF2F3E08031DA42EA52EAE2E0030AC
:101D4C00A9000030A8000030A7000030A600FF2F2B
:101D5C003E08AE00AF012F08B1003F082E02B000C4
:101D6C00031CB10330087F3EB80031080318013E54
:101D7C00003EB9002D08B6002C08B5002B08B400A5
:101D8C002A08B3000030AD000030AC000030AB00CE
:101D9C000030AA000030BD000030BC000030BB0099
:101DAC000030BA00BF01242F3F080319DE2EDF2EAE
:101DBC00FF2E0130AE000310B30DB40DB50DB60DF2
:101DCC00AE0BE12E0130AE000310AA0DAB0DAC0D25
:101DDC00AD0DAE0BEA2EBD1FF42EF52EF62E2A14E9
:101DEC000130AE000310BA0DBB0DBC0DBD0DAE0B1A
:101DFC00F82E29083602031D0D2F28083502031D65
:101E0C000D2F27083402031D0D2F26083302031C47
:101E1C00102F112F202F3D172608B3022708031C63
:101E2C00270FB4022808031C280FB5022908031C2D
:101E3C00290FB6020130AE002E08BF071A303F0240
:101E4C00031C292F2A2FDA2E3608350434043304C8
:101E5C000319312F322F512F3A14512F0130AE006C
:101E6C000310AA0DAB0DAC0DAD0DAE0B362FBD1F77
:101E7C00402F412F422F2A140130AE000310BA0D0F
:101E8C00BB0DBC0DBD0DAE0B442FFF30B8070318B6
:101E9C00B90AFF30B907AC1F542F552F342FBF018F
:101EAC00BD1F592F5A2F762FFF303A05AE00FF3049
:101EBC003B05AF00FF303C05B0007F303D05B10065
:101ECC00310830042F042E0403196D2F6E2F712F3F
:101EDC00BF01BF0A762F2A1C742F752F762F6E2FF9
:101EEC003F0803197A2F7B2FAC2F0130AA07003043
:101EFC0003180130AB07003003180130AC07003079
:101F0C0003180130AD072D1C8C2F8D2FAC2F2A08F8
:101F1C00AE002B08AF002C08B0002D08B10001302A
:101F2C00B200310DB10CB00CAF0CAE0CB20B972F44
:101F3C003108AD003008AC002F08AB002E08AA0009
:101F4C000130B8070318B90A0030B9073908803ACC
:101F5C00FF0080307F02031DB52FFF303802031CB9
:101F6C00B82FB92FC72FFF3083120313B8000030DE
:101F7C00B9000030AD000030AC000030AB000030D8
:101F8C00AA00831203133908803AFF0080307F02C5
:101F9C00031DD22F013038020318D52FD62FE32F73
:101FAC0083120313B801B9010030AD000030AC004E
:101FBC000030AB000030AA00B701831203133808BD
:101FCC00AE002E08BE003E1CEC2FED2FEF2FAC17F1
:101FDC00F32F7F30AE002E08AC053E08AE00031088
:101FEC002E0CAF002F08AD003708AE002E08AD0444
:041FFC00972E080014
:00000001FF
